{
  "_format": "hh3-artifact-1",
  "contractName": "Marketplace",
  "sourceName": "contracts/Marketplace.sol",
  "abi": [
    {
      "inputs": [
        {
          "internalType": "address",
          "name": "_energyTokenAddress",
          "type": "address"
        },
        {
          "internalType": "address",
          "name": "_carbonCreditTokenAddress",
          "type": "address"
        },
        {
          "internalType": "address",
          "name": "initialOwner",
          "type": "address"
        }
      ],
      "stateMutability": "nonpayable",
      "type": "constructor"
    },
    {
      "inputs": [
        {
          "internalType": "address",
          "name": "owner",
          "type": "address"
        }
      ],
      "name": "OwnableInvalidOwner",
      "type": "error"
    },
    {
      "inputs": [
        {
          "internalType": "address",
          "name": "account",
          "type": "address"
        }
      ],
      "name": "OwnableUnauthorizedAccount",
      "type": "error"
    },
    {
      "anonymous": false,
      "inputs": [
        {
          "indexed": true,
          "internalType": "address",
          "name": "previousOwner",
          "type": "address"
        },
        {
          "indexed": true,
          "internalType": "address",
          "name": "newOwner",
          "type": "address"
        }
      ],
      "name": "OwnershipTransferred",
      "type": "event"
    },
    {
      "anonymous": false,
      "inputs": [
        {
          "indexed": false,
          "internalType": "uint256",
          "name": "id",
          "type": "uint256"
        }
      ],
      "name": "SaleCancelled",
      "type": "event"
    },
    {
      "anonymous": false,
      "inputs": [
        {
          "indexed": false,
          "internalType": "uint256",
          "name": "id",
          "type": "uint256"
        },
        {
          "indexed": false,
          "internalType": "address",
          "name": "buyer",
          "type": "address"
        }
      ],
      "name": "SaleCompleted",
      "type": "event"
    },
    {
      "anonymous": false,
      "inputs": [
        {
          "indexed": false,
          "internalType": "uint256",
          "name": "id",
          "type": "uint256"
        },
        {
          "indexed": false,
          "internalType": "address",
          "name": "seller",
          "type": "address"
        },
        {
          "indexed": false,
          "internalType": "address",
          "name": "tokenContract",
          "type": "address"
        },
        {
          "indexed": false,
          "internalType": "uint256",
          "name": "amount",
          "type": "uint256"
        },
        {
          "indexed": false,
          "internalType": "uint256",
          "name": "price",
          "type": "uint256"
        }
      ],
      "name": "SaleCreated",
      "type": "event"
    },
    {
      "inputs": [
        {
          "internalType": "uint256",
          "name": "_saleId",
          "type": "uint256"
        }
      ],
      "name": "cancelSale",
      "outputs": [],
      "stateMutability": "nonpayable",
      "type": "function"
    },
    {
      "inputs": [],
      "name": "carbonCreditToken",
      "outputs": [
        {
          "internalType": "contract IERC20",
          "name": "",
          "type": "address"
        }
      ],
      "stateMutability": "view",
      "type": "function"
    },
    {
      "inputs": [
        {
          "internalType": "address",
          "name": "_tokenContract",
          "type": "address"
        },
        {
          "internalType": "uint256",
          "name": "_amount",
          "type": "uint256"
        },
        {
          "internalType": "uint256",
          "name": "_price",
          "type": "uint256"
        }
      ],
      "name": "createSale",
      "outputs": [],
      "stateMutability": "nonpayable",
      "type": "function"
    },
    {
      "inputs": [],
      "name": "energyToken",
      "outputs": [
        {
          "internalType": "contract IERC20",
          "name": "",
          "type": "address"
        }
      ],
      "stateMutability": "view",
      "type": "function"
    },
    {
      "inputs": [
        {
          "internalType": "uint256",
          "name": "_saleId",
          "type": "uint256"
        }
      ],
      "name": "executeSale",
      "outputs": [],
      "stateMutability": "payable",
      "type": "function"
    },
    {
      "inputs": [],
      "name": "nextSaleId",
      "outputs": [
        {
          "internalType": "uint256",
          "name": "",
          "type": "uint256"
        }
      ],
      "stateMutability": "view",
      "type": "function"
    },
    {
      "inputs": [],
      "name": "owner",
      "outputs": [
        {
          "internalType": "address",
          "name": "",
          "type": "address"
        }
      ],
      "stateMutability": "view",
      "type": "function"
    },
    {
      "inputs": [],
      "name": "renounceOwnership",
      "outputs": [],
      "stateMutability": "nonpayable",
      "type": "function"
    },
    {
      "inputs": [
        {
          "internalType": "uint256",
          "name": "",
          "type": "uint256"
        }
      ],
      "name": "sales",
      "outputs": [
        {
          "internalType": "uint256",
          "name": "id",
          "type": "uint256"
        },
        {
          "internalType": "address",
          "name": "seller",
          "type": "address"
        },
        {
          "internalType": "address",
          "name": "tokenContract",
          "type": "address"
        },
        {
          "internalType": "uint256",
          "name": "amount",
          "type": "uint256"
        },
        {
          "internalType": "uint256",
          "name": "price",
          "type": "uint256"
        },
        {
          "internalType": "bool",
          "name": "active",
          "type": "bool"
        }
      ],
      "stateMutability": "view",
      "type": "function"
    },
    {
      "inputs": [
        {
          "internalType": "address",
          "name": "newOwner",
          "type": "address"
        }
      ],
      "name": "transferOwnership",
      "outputs": [],
      "stateMutability": "nonpayable",
      "type": "function"
    }
  ],
  "bytecode": "0x60c060405234801561000f575f5ffd5b50604051610d34380380610d3483398101604081905261002e916100e8565b806001600160a01b03811661005c57604051631e4fbdf760e01b81525f600482015260240160405180910390fd5b6100658161007e565b50506001600160a01b039182166080521660a052610128565b5f80546001600160a01b038381166001600160a01b0319831681178455604051919092169283917f8be0079c531659141344cd1fd0a4f28419497f9722a3daafe3b4186f6b6457e09190a35050565b80516001600160a01b03811681146100e3575f5ffd5b919050565b5f5f5f606084860312156100fa575f5ffd5b610103846100cd565b9250610111602085016100cd565b915061011f604085016100cd565b90509250925092565b60805160a051610bdf6101555f395f818160f401526105d201525f818160a401526105970152610bdf5ff3fe60806040526004361061008f575f3560e01c80639f161af2116100575780639f161af21461015b578063b5f522f71461017a578063bd94b00514610213578063deb077b914610232578063f2fde38b14610255575f5ffd5b80634ec7fb811461009357806366dea358146100e3578063715018a6146101165780638da5cb5b1461012c5780639b1225c414610148575b5f5ffd5b34801561009e575f5ffd5b506100c67f000000000000000000000000000000000000000000000000000000000000000081565b6040516001600160a01b0390911681526020015b60405180910390f35b3480156100ee575f5ffd5b506100c67f000000000000000000000000000000000000000000000000000000000000000081565b348015610121575f5ffd5b5061012a610274565b005b348015610137575f5ffd5b505f546001600160a01b03166100c6565b61012a610156366004610acd565b610287565b348015610166575f5ffd5b5061012a610175366004610aff565b6104f7565b348015610185575f5ffd5b506101d8610194366004610acd565b600160208190525f91825260409091208054918101546002820154600383015460048401546005909401546001600160a01b03938416949390921692909160ff1686565b604080519687526001600160a01b039586166020880152939094169285019290925260608401526080830152151560a082015260c0016100da565b34801561021e575f5ffd5b5061012a61022d366004610acd565b61089f565b34801561023d575f5ffd5b5061024760025481565b6040519081526020016100da565b348015610260575f5ffd5b5061012a61026f366004610b2f565b610a15565b61027c610a52565b6102855f610a7e565b565b5f818152600160205260409020600581015460ff166102e25760405162461bcd60e51b815260206004820152601260248201527153616c65206973206e6f742061637469766560701b60448201526064015b60405180910390fd5b60018101546001600160a01b0316330361033e5760405162461bcd60e51b815260206004820181905260248201527f53656c6c65722063616e6e6f7420627579207468656972206f776e2073616c6560448201526064016102d9565b806004015434146103915760405162461bcd60e51b815260206004820152601a60248201527f496e636f72726563742045746865722076616c75652073656e7400000000000060448201526064016102d9565b60058101805460ff191690556002810154600382015460405163a9059cbb60e01b815233600482015260248101919091526001600160a01b039091169063a9059cbb906044016020604051808303815f875af11580156103f3573d5f5f3e3d5ffd5b505050506040513d601f19601f820116820180604052508101906104179190610b4f565b5060018101546040515f916001600160a01b03169034908381818185875af1925050503d805f8114610464576040519150601f19603f3d011682016040523d82523d5f602084013e610469565b606091505b50509050806104ba5760405162461bcd60e51b815260206004820152601e60248201527f4661696c656420746f2073656e6420457468657220746f2073656c6c6572000060448201526064016102d9565b604080518481523360208201527f8262b86fecd9df80dbb59dce1f2d83b992fa5e477fca9b869af821ea565e673c910160405180910390a1505050565b5f82116105465760405162461bcd60e51b815260206004820181905260248201527f416d6f756e74206d7573742062652067726561746572207468616e207a65726f60448201526064016102d9565b5f81116105955760405162461bcd60e51b815260206004820152601f60248201527f5072696365206d7573742062652067726561746572207468616e207a65726f0060448201526064016102d9565b7f00000000000000000000000000000000000000000000000000000000000000006001600160a01b0316836001600160a01b0316148061060657507f00000000000000000000000000000000000000000000000000000000000000006001600160a01b0316836001600160a01b0316145b61064b5760405162461bcd60e51b8152602060048201526016602482015275125b9d985b1a59081d1bdad95b8818dbdb9d1c9858dd60521b60448201526064016102d9565b604051636eb1769f60e11b81523360048201523060248201525f906001600160a01b0385169063dd62ed3e90604401602060405180830381865afa158015610695573d5f5f3e3d5ffd5b505050506040513d601f19601f820116820180604052508101906106b99190610b6e565b9050828110156107035760405162461bcd60e51b8152602060048201526015602482015274436865636b20746f6b656e20616c6c6f77616e636560581b60448201526064016102d9565b6040516323b872dd60e01b8152336004820152306024820152604481018490526001600160a01b038516906323b872dd906064016020604051808303815f875af1158015610753573d5f5f3e3d5ffd5b505050506040513d601f19601f820116820180604052508101906107779190610b4f565b506040805160c081018252600280548083523360208085018281526001600160a01b038b8116878901908152606088018c8152608089018c8152600160a08b018181525f998a5296819052978b902099518a55935196890180549784166001600160a01b031998891617905590518888018054919093169616959095179055925160038601559151600485015590516005909301805493151560ff19909416939093179092555491517f57412d7f8ab9f09c8f517e3e9f6e4819b7d74a97e65ce95ad4605ef5172fcbad9261087d9290918890889088909485526001600160a01b0393841660208601529190921660408401526060830191909152608082015260a00190565b60405180910390a160028054905f61089483610b85565b919050555050505050565b5f818152600160205260409020600581015460ff166108f55760405162461bcd60e51b815260206004820152601260248201527153616c65206973206e6f742061637469766560701b60448201526064016102d9565b60018101546001600160a01b031633146109515760405162461bcd60e51b815260206004820152601a60248201527f4f6e6c79207468652073656c6c65722063616e2063616e63656c00000000000060448201526064016102d9565b60058101805460ff1916905560028101546001820154600383015460405163a9059cbb60e01b81526001600160a01b039283166004820152602481019190915291169063a9059cbb906044016020604051808303815f875af11580156109b9573d5f5f3e3d5ffd5b505050506040513d601f19601f820116820180604052508101906109dd9190610b4f565b506040518281527f2c56893f6f6026d19bd17b7d05c9f15c522de1ae2b1c3a825f91a73c799321f29060200160405180910390a15050565b610a1d610a52565b6001600160a01b038116610a4657604051631e4fbdf760e01b81525f60048201526024016102d9565b610a4f81610a7e565b50565b5f546001600160a01b031633146102855760405163118cdaa760e01b81523360048201526024016102d9565b5f80546001600160a01b038381166001600160a01b0319831681178455604051919092169283917f8be0079c531659141344cd1fd0a4f28419497f9722a3daafe3b4186f6b6457e09190a35050565b5f60208284031215610add575f5ffd5b5035919050565b80356001600160a01b0381168114610afa575f5ffd5b919050565b5f5f5f60608486031215610b11575f5ffd5b610b1a84610ae4565b95602085013595506040909401359392505050565b5f60208284031215610b3f575f5ffd5b610b4882610ae4565b9392505050565b5f60208284031215610b5f575f5ffd5b81518015158114610b48575f5ffd5b5f60208284031215610b7e575f5ffd5b5051919050565b5f60018201610ba257634e487b7160e01b5f52601160045260245ffd5b506001019056fea2646970667358221220181f9a25b99f990865bddf92407f0ea5dfd7225ec1d1988c07b2bcb533ee4d7464736f6c634300081c0033",
  "linkReferences": {},
  "deployedLinkReferences": {},
  "immutableReferences": {
    "265": [
      {
        "length": 32,
        "start": 164
      },
      {
        "length": 32,
        "start": 1431
      }
    ],
    "268": [
      {
        "length": 32,
        "start": 244
      },
      {
        "length": 32,
        "start": 1490
      }
    ]
  },
  "inputSourceName": "project/contracts/Marketplace.sol",
  "buildInfoId": "solc-0_8_28-3e17d9c2fe2090b5aa1b869e295573f660326107"
}